{
  "contractName": "Verification",
  "abi": [
    {
      "constant": false,
      "inputs": [
        {
          "internalType": "bytes32",
          "name": "initKey",
          "type": "bytes32"
        }
      ],
      "name": "PubKey",
      "outputs": [],
      "payable": false,
      "stateMutability": "nonpayable",
      "type": "function"
    },
    {
      "constant": false,
      "inputs": [],
      "name": "getPubKey",
      "outputs": [
        {
          "internalType": "bytes32",
          "name": "",
          "type": "bytes32"
        }
      ],
      "payable": false,
      "stateMutability": "nonpayable",
      "type": "function"
    }
  ],
  "bytecode": "0x608060405234801561001057600080fd5b5060c68061001f6000396000f3fe6080604052348015600f57600080fd5b506004361060325760003560e01c80634ad02ef114603757806393b5fbbd146053575b600080fd5b603d607e565b6040518082815260200191505060405180910390f35b607c60048036036020811015606757600080fd5b81019080803590602001909291905050506087565b005b60008054905090565b806000819055505056fea265627a7a723158201c18a185d3fb835b4f3e198026f8d34eb62fd297e3af1a5cb5be9cad9af1631e64736f6c63430005100032",
  "source": "pragma solidity >=0.4.25 <0.7.0;\r\n\r\ncontract Verification {\r\n     bytes32 pubKey;\r\n     \r\n\r\n    function  PubKey(bytes32 initKey) public {\r\n        pubKey = initKey;\r\n    }\r\n\r\n    function  getPubKey() public returns (bytes32) {\r\n\r\n    return pubKey;\r\n\r\n    }\r\n}",
  "sourcePath": "C:/Users/n3zqi/Desktop/thesis/TrustworthyDLT/contracts/Verification.sol",
  "compiler": {
    "name": "solc",
    "version": "0.5.16+commit.9c3226ce.Emscripten.clang"
  },
  "schemaVersion": "3.3.3",
  "updatedAt": "2021-09-28T12:25:26.687Z",
  "networkType": "ethereum",
  "devdoc": {
    "methods": {}
  },
  "userdoc": {
    "methods": {}
  }
}